:100000008DEF10F00000000000EF00F00000000095
:0A0010000000000000000000F3D71C
:0E001C0001017AB102D08B9801D08B881200BE
:0E002A0001017AB102D08B9601D08B861200B4
:0E00380001017AB102D08D9601D08D861200A2
:0E00460001017AB102D0899401D089841200A0
:0E00540001017AB102D08B9C01D08B8C12007E
:0E00620001017AB102D08B9401D08B84120080
:0E00700001017AB102D08B9A01D08B8A120066
:0E007E0001017AB102D08B9E01D08B8E120050
:0E008C0001017AB102D08A9201D08A8212005C
:0E009A0001017AB102D08D9401D08D84120044
:0E00A80001017AB102D08F9201D08F82120036
:0E00B60001017AB102D08F9401D08F84120024
:0E00C40001017AB102D08B9801D08B88120016
:0E00D20001017AB102D08B9601D08B8612000C
:0E00E00001017AB102D08A9401D08A84120004
:0E00EE0001017AB102D08B9801D08B881200EC
:0E00FC0001017AB102D08B9601D08B861200E2
:0E010A0001017AB102D08F9001D08F801200D7
:0E01180001017AB102D08B9A01D08B8A1200BD
:0E01260001017AB102D08B9801D08B881200B3
:0E01340001017AB102D08B9601D08B861200A9
:0E01420001017AB102D08B9201D08B821200A3
:0E01500001017AB102D08B9A01D08B8A120085
:0E015E0001017AB102D08D9001D08D80120087
:10016C000F0121B302D00000FBD77AC11CFF120093
:0E017C00ACB202D00000FCD77AC1ADFF120079
:0E018A0001017AB102D08B9001D08B8012005F
:0E01980001017AB102D0899001D08980120055
:0E01A60001017AB102D08A9001D08A80120045
:0E01B40001017AB102D08D9201D08D8212002D
:0E01C20001017AB102D0899801D0898812001B
:0E01D00001017AB102D08B9801D08B88120009
:0E01DE0001017AB102D08B9601D08B861200FF
:0E01EC0001017AB102D0899201D089821200FD
:0E01FA0001017AB102D08B9C01D08B8C1200D7
:0E02080001017AB102D08B9E01D08B8E1200C4
:0E02160001017AB102D08B9801D08B881200C2
:0E02240001017AB102D08B9601D08B861200B8
:10023200F250026EF29E0500FF6A0150FE6E0050FF
:08024200FD6E02BEF28E1200F7
:10024A00C7B409D01F0EC514016E0150000A03E19C
:0A025A00010E006E01D0006A1200D0
:1002640068B409D01F0E6614016E0150000A03E140
:0A027400010E006E01D0006A1200B6
:0A027E00000EA4BA010E006E12007B
:0A028800000E84B0010E006E12009B
:0A029200000E82B0010E006E120093
:0A029C00000E82BA010E006E12007F
:0A02A600000E82B2010E006E12007D
:0A02B000000E82B8010E006E12006D
:0A02BA00000E82B6010E006E120065
:0A02C400000E80B0010E006E120063
:0A02CE00000E84B6010E006E12004F
:0A02D800000E82B8010E006E120045
:1002E200AEC074F1AFC075F1B0C076F1B1C077F1B4
:1002F200C582C5A220D00001AE51AF11B011B1111B
:1003020019E0010174517511761177110CE10BC1DD
:10031200E1FF0CC1E2FF060EE66E09C100F00AC160
:1003220001F086DF08D0010E0101745F000E755BDB
:08033200765B775BDED7120059
:0A033A00000E80B4010E006E1200E8
:100344001DCF01F00F0122A302D02299228901C0FE
:0403540000F01200A3
:0A035800000EACB2010E006E1200A0
:0C036200000E0F0121B3010E006E12000E
:0A036E00000E81B2010E006E1200B5
:0A037800000E82B4010E006E1200A8
:0A038200000E82BE010E006E120094
:0A038C00000E82BC010E006E12008C
:0A039600000E82BA010E006E120084
:0A03A000000E82B6010E006E12007E
:0A03AA00000E82BC010E006E12006E
:0A03B400000E82B6010E006E12006A
:0A03BE00000E82B8010E006E12005E
:0A03C800000E82BE010E006E12004E
:0A03D200000E81B0010E006E120053
:0A03DC00000E80B2010E006E120048
:0A03E600000E82B6010E006E120038
:0A03F000000E84B2010E006E120030
:0A03FA00000E82B8010E006E120022
:0A040400000E82B8010E006E120017
:0A040E00000E86B2010E006E12000F
:0A041800000E9EBA010E006E1200E5
:0A042200000E86B4010E006E1200F9
:0A042C00000E80B8010E006E1200F1
:0404360066841200C6
:10043A00AAC076F1ABC077F1ACC078F1ADC079F162
:10044A00A19A6686A1BA20D00001AA51AB11AC11BB
:10045A00AD1119E0010176517711781179110CE18A
:10046A0003C1E1FF04C1E2FF030EE66E01C100F021
:10047A0002C101F0D9DE08D0010E0101765F000E3B
:10048A00775B785B795BDED701016ACF75F17451CE
:10049A00000A02E1668A01D0669AA19A6688AAC011
:1004AA0076F1ABC077F1ACC078F1ADC079F1A1BA01
:1004BA0020D00001AA51AB11AC11AD1119E0010114
:1004CA0076517711781179110CE103C1E1FF04C16A
:1004DA00E2FF030EE66E01C100F002C101F0A4DEE4
:1004EA0008D0010E0101765F000E775B785B795BBD
:0804FA00DED775C100F012000D
:10050200AAC074F1ABC075F1ACC076F1ADC077F1A1
:10051200668266A220D00001AA51AB11AC11AD11C6
:1005220019E0010174517511761177110CE103C1C3
:10053200E1FF04C1E2FF060EE66E01C100F002C156
:1005420001F076DE08D0010E0101745F000E755BCA
:08055200765B775BDED7120037
:0A055A00000E82B6010E006E1200C2
:10056400AEC076F1AFC077F1B0C078F1B1C079F127
:100574000101746B756B7551120802E174518E0898
:1005840008E361DE005201E004D00101744B752BD5
:10059400F2D70101120E755D02E18F0E745D03E363
:1005A4007B0E006E26D0C580C5A022D00001AE51BE
:1005B400AF11B011B1111BE001017651771178111F
:1005C40079110EE10BC1E1FF0CC1E2FF050EE66EED
:1005D40009C100F00AC101F02ADE010E006E09D043
:1005E400010E0101765F000E775B785B795BDCD7E7
:0405F400006A120087
:1005F800A19A74C16AFFAAC075F1ABC076F1ACC00C
:1006080077F1ADC078F168A422D00001AA51AB11EE
:10061800AC11AD111BE001017551761177117811FC
:100628000EE103C1E1FF04C1E2FF040EE66E01C161
:1006380000F002C101F0F9DD010E006E3BD0010EA1
:100648000101755F000E765B775B785BDCD7AAC02B
:1006580075F1ABC076F1ACC077F1ADC078F1A1BA55
:1006680022D00001AA51AB11AC11AD111BE0010160
:1006780075517611771178110EE103C1E1FF04C1BC
:10068800E2FF040EE66E01C100F002C101F0CDDD0B
:10069800010E006E0FD0010E0101755F000E765B32
:1006A800775B785BDCD766BC02D0006A03D06684CF
:0606B800020E006E1200AC
:0A06BE00000E82B8010E006E12005B
:0A06C800000E84B4010E006E120053
:1006D200AECF01F0ABA202D0AB98AB8801C000F064
:0206E200120004
:0406E400C5841200B7
:0A06E800000E81B4010E006E120036
:0A06F200000E82B6010E006E120029
:1006FC00AEC076F1AFC077F1B0C078F1B1C079F18E
:10070C009E96C5869EB620D00001AE51AF11B01199
:10071C00B11119E0010176517711781179110CE1C1
:10072C000BC1E1FF0CC1E2FF030EE66E09C100F044
:10073C000AC101F078DD08D0010E0101765F000ED0
:10074C00775B785B795BDED70101C9CF75F17451AA
:10075C00000A02E1C58A01D0C59A9E96C588AEC032
:10076C0076F1AFC077F1B0C078F1B1C079F19EB637
:10077C0020D00001AE51AF11B011B11119E001013F
:10078C0076517711781179110CE10BC1E1FF0CC195
:10079C00E2FF030EE66E09C100F00AC101F043DD71
:1007AC0008D0010E0101765F000E775B785B795BF8
:0807BC00DED775C100F0120048
:1007C4009E9674C1C9FFAEC075F1AFC076F1B0C0DA
:1007D40077F1B1C078F1C7A422D00001AE51AF11B6
:1007E400B011B1111BE00101755176117711781127
:1007F4000EE10BC1E1FF0CC1E2FF040EE66E09C17C
:1008040000F00AC101F013DD010E006E3BD0010EB1
:100814000101755F000E765B775B785BDCD7AEC059
:1008240075F1AFC076F1B0C077F1B1C078F19EB682
:1008340022D00001AE51AF11B011B1111BE0010182
:1008440075517611771178110EE10BC1E1FF0CC1DE
:10085400E2FF040EE66E09C100F00AC101F0E7DC14
:10086400010E006E0FD0010E0101755F000E765B64
:10087400775B785BDCD7C5BC02D0006A03D0C58443
:06088400020E006E1200DE
:0A088A00000E82BA010E006E12008B
:10089400AAC076F1ABC077F1ACC078F1ADC079F104
:1008A4000101746B756B7551120802E174518E0865
:1008B40008E3D6DC005201E004D00101744B752B2F
:1008C400F2D70101120E755D02E18F0E745D03E330
:1008D4007B0E006E26D0668066A022D00001AA514D
:1008E400AB11AC11AD111BE00101765177117811F8
:1008F40079110EE103C1E1FF04C1E2FF050EE66ECA
:1009040001C100F002C101F092DC010E006E09D0B9
:10091400010E0101765F000E775B785B795BDCD7B3
:04092400006A120053
:0A092800000E86B0010E006E1200F2
:1009320001016A6B6B6B25C100F026C101F078DC06
:1009420000C06AF1000E01016B6F6AC100F06BC159
:0409520001F012009E
:100956000101726B736B6BC170F16CC171F16AC18D
:1009660000F0003600901FC1E1FF20C1E2FF00C089
:10097600E6FF1DC100F01EC101F058DC0050010168
:100986007213000E73136DC100F06EC101F0010EFB
:100996006D5F000E6E5B0050011017E01FC1E1FF96
:1009A60020C1E2FF70C1E9FF71C1EAFFEECFE6FFA9
:1009B6001DC100F01EC101F039DC005001017213A7
:1009C600000E7313704B712BDED76F51000A05E1D1
:1009D60019C100F01AC101F029DC01016F51010AA9
:1009E60005E115C100F016C101F020DC72C100F06E
:0609F60073C101F01200C4
:1009FC000101726B736B6BC170F16CC171F16AC1E7
:100A0C0000F00036009000801FC1E1FF20C1E2FF22
:100A1C0000C0E6FF1DC100F01EC101F004DC005057
:100A2C0001017213000E7313010E6D5F000E6E5BED
:100A3C006D516E1116E023C1E1FF24C1E2FF010EDE
:100A4C00E66E21C100F022C101F019EC01F070C179
:100A5C00E1FF71C1E2FF00C0E6FF0101704B712B99
:100A6C00E3D723C1E1FF24C1E2FFE66A21C100F014
:100A7C0022C101F019EC01F070C1E1FF71C1E2FF7C
:100A8C0000C0E6FF01016F51000A06E119C100F038
:100A9C001AC101F019EC01F001016F51010A06E1D4
:100AAC0015C100F016C101F019EC01F072C100F093
:060ABC0073C101F01200FD
:0E0AC200026A016A006A086A036A000E1200E6
:100AD000086A096A100E0C6E013408360936045093
:100AE000085E0550D8A0053C095ED8B007D0045078
:100AF00008260550D8B0053C0926D89000360136A6
:060B00000C2EEAD71200E2
:100B06007C0E0101356F010E366F7A0E376F010EBE
:100B1600386FD20E416F060E426F000E436F000E05
:100B2600446F180E3D6F040E3E6F000E3F6F000EB1
:100B3600406F580E396F030E3A6F000E3B6F000E72
:100B46003C6FAC8A900EAB6E948E949C9EAA03D09A
:080B5600AECF00F0FBD7120046
:100B5E006C0E0101356F010E366F7A0E376F010E76
:100B6E00386F440E416F030E426F000E436F000E3E
:100B7E00446F7E0E3D6F020E3E6F000E3F6F000EF5
:100B8E00406F620E396F030E3A6F000E3B6F000E10
:100B9E003C6F0F01218B900E226F98849892A4AA1D
:0A0BAE0003D01DCF00F0FBD71200AA
:100BB80066C167F1BADEFFC06AF1670E6B6F010E9E
:100BC8006C6F010E6D6F000E6E6F010E6F6FBFDEE2
:100BD800FFC06AF1680E01016B6F010E6C6F010EA8
:100BE8006D6F000E6E6F6F6B05DF68C100F012004D
:100BF8000B820BAE06EF06F0036802680168006816
:080C08000A360232FF0E120051
:100C10000B840BAE13EF06F0010E036E026A016A3D
:0A0C2000006A0A360232FF0E1200CD
:100C2A004A0E0101516F020E526F000E536F000EF1
:100C3A00546F640E4D6F050E4E6F000E4F6F000E0F
:100C4A00506FE20E496F020E4A6F000E4B6F000E94
:100C5A004C6FFC0E316F060E326F740E336F010E3D
:100C6A00346FC40E2D6F070E2E6F740E2F6F010E88
:100C7A00306FE40E296F060E2A6F000E2B6F000EDE
:100C8A002C6F949894968B988B9694889486C79E8A
:080C9A00C79C380EC66E120063
:080CA2000AAE029E000E1200D2
:100CAA0059D0010160B102D0929001D092800F0117
:100CBA00259176D0010160B102D0949001D0948040
:100CCA006FD0010160B102D0969001D0968068D0B1
:100CDA00010160B102D0949601D0948661D00101DD
:100CEA0060B102D0949801D094885AD0010160B1C1
:100CFA0002D0949A01D0948A53D0010160B102D0F3
:100D0A00949201D094824CD0010160B102D09390A8
:100D1A0001D0938045D0010160B102D0949E01D0E8
:100D2A00948E3ED0010160B102D0949C01D0948C83
:100D3A0037D0010160B102D0949601D0948630D0A8
:100D4A00010160B102D0949801D0948829D0010E93
:100D5A00006E28D001015F51000AA3E05F51010A29
:100D6A00A9E05F51020AADE05F51030AB1E05F51A9
:100D7A00040AB5E05F51050AB9E05F51060ABDE011
:100D8A005F51070AC1E05F51080AC5E05F51090ACD
:100D9A00C9E05F510A0ACDE05F510B0AD1E0D7D70B
:060DAA00000E006E1200B5
:100DB00038D00F0120870D0E1F6F040E1E6F218586
:100DC000CEDE7ED00F012087060E1F6F820E1E6FB3
:100DD0002185C5DE75D00F012087030E1F6F400EE1
:100DE0001E6F2185BCDE6CD00F012087010E1F6FA6
:100DF000A00E1E6F2185B3DE63D00F012087010E88
:100E00001F6F150E1E6F2185AADE5AD00F01208795
:100E10001F6B8A0E1E6F2185A2DE52D0060E006E59
:100E200059D0000E006E0101621908E100506119ED
:100E300005E1120E601902E15F51C00ABAE0000E2E
:100E4000006E621908E10050611905E1250E601974
:100E500002E15F51800AB6E0000E006E621908E1FF
:100E60000050611905E14B0E601902E15F51000A63
:100E7000B2E0000E006E621908E10050611905E150
:100E8000960E601902E15F51000AAEE0000E006E9E
:100E9000621908E10050611905E1E10E601902E1F3
:100EA0005F51000AAAE06251000A08E16151010A9B
:100EB00005E16051C20A02E15F51000AA7E0AED726
:100EC00001016C0E0D6F010E0E6F7A0E0F6F010E89
:060ED000106F006A120021
:100ED60059D0010160B102D0929201D092820F01E5
:100EE600259376D0010160B102D0929801D0928804
:100EF6006FD0010160B102D0969201D0968268D07F
:100F0600010160B102D0949601D0948661D00101AE
:100F160060B102D0949801D094885AD0010160B192
:100F260002D0949A01D0948A53D0010160B102D0C4
:100F3600949401D094844CD0010160B102D0939274
:100F460001D0938245D0010160B102D0949E01D0B8
:100F5600948E3ED0010160B102D0949C01D0948C55
:100F660037D0010160B102D0949601D0948630D07A
:100F7600010160B102D0949801D0948829D0010E65
:100F8600006E28D001015F51000AA3E05F51010AFB
:100F9600A9E05F51020AADE05F51030AB1E05F517B
:100FA600040AB5E05F51050AB9E05F51060ABDE0E3
:100FB6005F51070AC1E05F51080AC5E05F51090A9F
:100FC600C9E05F510A0ACDE05F510B0AD1E0D7D7DD
:060FD600000E006E120087
:100FDC00300E01015F25006E000E6021016E000EC7
:100FEC006121026E1C0E0024F66E000E0120F76EBD
:100FFC00000E0220F86E0900F5CF11F10900F5CFB3
:10100C0012F10900F5CF13F10900F5CF14F1040E1C
:10101C005F25F66E000E6021F76E000E6121F86EF2
:10102C000900F5CF05F10900F5CF06F10900F5CF60
:0A103C0007F10900F5CF08F11200DA
:101046005FC1F6FF60C1F7FF61C1F8FF0900F5CF88
:1010560025F10900F5CF26F10900F5CF27F10900A2
:10106600F5CF28F1040E01015F25F66E000E602112
:10107600F76E000E6121F86E0900F5CF19F109002F
:10108600F5CF1AF10900F5CF1BF10900F5CF1CF1D8
:10109600080E5F25F66E000E6021F76E000E6121C8
:1010A600F86E0900F5CF15F10900F5CF16F1090024
:1010B600F5CF17F10900F5CF18F10C0E5F25F66E86
:1010C600000E6021F76E000E6121F86E0900F5CF63
:1010D6001DF10900F5CF1EF10900F5CF1FF109003A
:1010E600F5CF20F1100E5F25F66E000E6021F76E2B
:1010F600000E6121F86E0900F5CF21F10900F5CF48
:1011060022F10900F5CF23F10900F5CF24F11200F1
:1011160021D0CF0EAF6EAC94F3DC6BD0670EAF6E02
:10112600AC94EEDC66D0CF0EAF6EAC84E9DC61D059
:10113600670EAF6EAC84E4DC5CD0440EAF6EAC845C
:10114600DFDC57D0220EAF6EAC84DADC52D0060E4E
:10115600006E58D00101000E006E621908E10050C1
:10116600611905E1120E601902E15F51C00AD1E072
:10117600000E006E621908E10050611905E1250EA6
:10118600601902E15F51800AC9E0000E006E621923
:1011960008E10050611905E14B0E601902E15F514B
:1011A600000AC1E0000E006E621908E100506119E4
:1011B60005E1960E601902E15F51000AB9E0000EE2
:1011C600006E621908E10050611905E1E10E60192F
:1011D60002E15F51000AB1E06251000A08E1615183
:1011E600010A05E16051C20A02E15F51000AAAE064
:1011F600AED77C0E0D6F010E0E6F7A0E0F6F010EBD
:06120600106F006A1200E7
:10120C0021D0CF0EAF6EAC9478DC6BD0670EAF6E86
:10121C00AC9473DC66D0CF0EAF6EAC846EDC61D058
:10122C00670EAF6EAC8469DC5CD0440EAF6EAC84E0
:10123C0064DC57D0220EAF6EAC845FDC52D0060E4D
:10124C00006E58D00101000E006E621908E10050CA
:10125C00611905E1120E601902E15F51C00AD1E07B
:10126C00000E006E621908E10050611905E1250EAF
:10127C00601902E15F51800AC9E0000E006E62192C
:10128C0008E10050611905E14B0E601902E15F5154
:10129C00000AC1E0000E006E621908E100506119ED
:1012AC0005E1960E601902E15F51000AB9E0000EEB
:1012BC00006E621908E10050611905E1E10E601938
:1012CC0002E15F51000AB1E06251000A08E161518C
:1012DC00010A05E16051C20A02E15F51000AAAE06D
:1012EC00AED77C0E0D6F010E0E6F7A0E0F6F010EC6
:0612FC00106F006A1200F1
:101302005FC162F160C163F161C164F10BD0A00EF3
:10131200C86E8ADC44D0280EC86E86DC40D0040E2B
:10132200006E3FD062C1F6FF63C1F7FF64C1F8FFF0
:101332000900F5CF01F00900F5CF02F00900F5CF61
:1013420003F00900F5CF04F00450000A08E103504D
:10135200010A05E10250860A02E10150A00AD7E023
:1013620062C1F6FF63C1F7FF64C1F8FF0900F5CF60
:1013720001F00900F5CF02F00900F5CF03F00900F2
:10138200F5CF04F00450000A08E10350060A05E113
:1013920002501A0A02E10150800ABDE0C0D7000ED5
:0413A200006E1200C7
:1013A6005FC162F160C163F161C164F10BD0A00E4F
:1013B600C86E38DC44D0280EC86E34DC40D0040E2B
:1013C600006E3FD062C1F6FF63C1F7FF64C1F8FF4C
:1013D6000900F5CF01F00900F5CF02F00900F5CFBD
:1013E60003F00900F5CF04F00450000A08E10350A9
:1013F600010A05E10250860A02E10150A00AD7E07F
:1014060062C1F6FF63C1F7FF64C1F8FF0900F5CFBB
:1014160001F00900F5CF02F00900F5CF03F009004D
:10142600F5CF04F00450000A08E10350060A05E16E
:1014360002501A0A02E10150800ABDE0C0D7000E30
:04144600006E120022
:10144A005DD0010160B102D0929401D092840F0163
:10145A0025957AD0010160B102D0969601D0968680
:10146A0073D0010160B102D0969401D096846CD0F9
:10147A00010160B102D0949601D0948665D0010131
:10148A0060B102D0949801D094885ED0010160B115
:10149A0002D0949A01D0948A57D0010160B102D047
:1014AA00989001D0988050D0010160B102D09394F5
:1014BA0001D0938449D0010160B102D0989401D03F
:1014CA0098840F01239540D0010160B102D098920F
:1014DA0001D098820F01239337D0010160B102D065
:1014EA00949601D0948630D0010160B102D09498CC
:1014FA0001D0948829D0010E006E28D001015F51D5
:10150A00000A9FE05F51010AA5E05F51020AA9E0C3
:10151A005F51030AADE05F51040AB1E05F51050A69
:10152A00B5E05F51060AB9E05F51070ABDE05F51B5
:10153A00080AC1E05F51090AC7E05F510A0ACDE013
:0E154A005F510B0AD1E0D7D7000E006E1200E1
:101558005FC162F160C163F161C164F10DD0A00E99
:10156800C86E15EC06F045D0280EC86E15EC06F0CE
:1015780040D0040E006E3FD062C1F6FF63C1F7FF92
:1015880064C1F8FF0900F5CF01F00900F5CF02F0BA
:101598000900F5CF03F00900F5CF04F00450000A64
:1015A80008E10350010A05E10250860A02E10150F0
:1015B800A00AD5E062C1F6FF63C1F7FF64C1F8FF76
:1015C8000900F5CF01F00900F5CF02F00900F5CFC9
:1015D80003F00900F5CF04F00450000A08E10350B5
:1015E800060A05E102501A0A02E10150800ABCE02D
:0815F800C0D7000E006E1200C6
:1016000027D0CF0EAF6EAC9483EC05F070D0670E90
:10161000AF6EAC9483EC05F06AD0CF0EAF6EAC84A5
:1016200083EC05F064D0670EAF6EAC8483EC05F0FC
:101630005ED0440EAF6EAC8483EC05F058D0220E21
:10164000AF6EAC8483EC05F052D0060E006E58D01D
:101650000101000E006E621908E10050611905E1F8
:10166000120E601902E15F51C00ACBE0000E006E5D
:10167000621908E10050611905E1250E601902E1C7
:101680005F51800AC4E0000E006E621908E100504C
:10169000611905E14B0E601902E15F51000ABDE0DE
:1016A000000E006E621908E10050611905E1960E06
:1016B000601902E15F51000AB6E0000E006E621987
:1016C00008E10050611905E1E10E601902E15F5186
:1016D000000AAFE06251000A08E16151010A05E128
:1016E0006051C20A02E15F51000AA9E0AED77C0E48
:1016F0000D6F010E0E6F7A0E0F6F010E106F006AE4
:021700001200D5
:101702000CB0C3EF0BF00CA26BEF0CF00E6A000EE4
:101712000264DAEF0BF0F00E0214D8A4A5EF0BF07E
:10172200023A01380F0B02260138F00B016E003825
:101732000F0B01260038F00B006E08380F0B002645
:101742000838F00B086E0E84D89002BEBEEF0BF084
:1017520008360036013602360E2A02BEBEEF0BF004
:1017620008360036013602360E2A02BEBEEF0BF0F4
:1017720008360036013602360E2A0E5003645FEF39
:101782000CF0035E0BBC08AE65EF0CF0D880800E47
:1017920008640030000E002201220222D8A065EF68
:1017A2000CF0023201320032034A6BEF0CF065EFAB
:1017B2000CF001C002F000C001F008C000F0086A9D
:1017C200000E0E86026411EF0CF0F00E0214D8A483
:1017D200F9EF0BF0023A01380F0B02260138F00B39
:1017E200016E00380F0B01260038F00B006E0E84DC
:1017F200D89002BEBEEF0BF00036013602360E2A3A
:1018020002BEBEEF0BF00036013602360E2A02BED1
:10181200BEEF0BF00036013602360E2ABEEF0BF099
:1018220001C002F000C001F0006A000E0E960E88A0
:1018320002643EEF0CF0F00E0214D8A429EF0CF073
:10184200023A01380F0B02260138F00B016E0E84AA
:10185200D89002BEBEEF0BF0013602360E2A02BE4F
:10186200BEEF0BF0013602360E2A02BEBEEF0BF0BF
:10187200013602360E2ABEEF0BF001C002F0016AF9
:10188200000E0E86026471EF0CF0F00E0214D8A462
:101892004DEF0CF0023A0E84D89002BEBEEF0BF070
:1018A20002360E2A02BEBEEF0BF002360E2A02BE2E
:1018B200BEEF0BF002360E2ABEEF0BF0010E0C6EDD
:1018C20008EC06F075EF0CF0020E0C6E51EC06F00F
:1018D20075EF0CF0040E0C6EFCEC05F075EF0CF0DD
:0A18E200080E0C6E61EC05F0120018
:1018EC00086A080E0C6E003408360450085ED8B036
:0E18FC0002D00826D89000360C2EF5D7120028
:10190A005FC166F1DCEC05F000C062F101015F51D4
:10191A00010F666FDCEC05F000C063F100C060F1F6
:10192A00000E0101616F60C101F0006A00C060F140
:10193A0001C061F162510012000E011200C060F193
:06194A0001C061F1120072
:101950000101636B050E635D0AE263516125E16E6F
:10196000000E6221E26E200EE66E632BF3D7635108
:101970006125E16E000E6221E26EE66A6307635143
:101980006125646F000E6221656F0A0E046E000E01
:10199000056E5FC100F060C101F068EC05F008C0A1
:1019A00000F009C001F0300E002664C1E1FF65C1FE
:1019B000E2FF00C0E6FF0A0E046E000E056E5FC176
:1019C00000F060C101F068EC05F000C05FF101C0FB
:1019D00060F1000E011802E1000E001801E102D0D2
:0619E0006307CDD71200E1
:1019E6000B800BAEFFEF0CF0026A0AAEFF0E026E22
:0C19F600016E006E0A360232FF0E120075
:101A02000FC1E1FF10C1E2FF5FC1E9FF60C1EAFF60
:101A1200EECFE6FF0DC100F00EC101F019EC01F0AE
:041A2200006A120044
:101A260001015B6B5C6B55C15DF156C15EF1800EC9
:101A36005619006E800E005C02E1000E555D0BE249
:101A4600010E5B6F000E5C6F555100085D6F56C14D
:101A56005EF1000E5E575DC15FF15EC160F157C178
:101A660061F158C162F171DF060E596F000E5A6FAF
:101A7600000E006E5A51005C02E15951000819E24D
:101A860059515725E16E5A515821E26E010E595DA2
:101A9600006E000E5A59016E00505725E96E01502E
:101AA6005821EA6EEECFE6FF010E595F000E5A5B33
:101AB600DFD757C1E1FF58C1E2FF200EE66E5B514A
:101AC6005C111AE0596B5A6B59515725E96E5A51F8
:101AD6005821EA6EEE50200A03E1594B5A2BF4D7EF
:101AE600010E595F000E5A5B59515725E16E5A5146
:0A1AF6005821E26E2D0EE66E12007C
:101B0000D00E0C6EC90E0D6E0D2EFED70C2EFCD70E
:061B1000000000001200BD
:101B160017D056C15FF157C160F155EC06F01BD0E6
:101B260056C15FF157C160F16BEC07F014D056C196
:101B36005FF157C160F186DC0ED0010E006E0BD04E
:101B460001015551000AE5E05551010AE9E05551F8
:081B5600020AEDE0F2D71200D3
:101B5E00260E01015F6FD2DE00C057F101C058F1B1
:101B6E000A0E046E57C100F0BADE00C055F10A0E1F
:101B7E00046E57C100F0B3DE08C000F000C056F18D
:101B8E0055C101F0013601900136019001360190E8
:101B9E00013601900150002600502808006E1200F8
:101BAE0000C008F00B6A0C6A9E0E036E0A6A026A87
:0C1BBE00016A006A020E0C6E9DDD120030
:101BCA001DD056C15FF157C160F158C161F1BFDC48
:101BDA0020D056C15FF157C160F158C161F1D3EC11
:101BEA0009F017D056C15FF157C160F158C161F1D0
:101BFA0081EC09F00ED0010E006E0BD00101555197
:101C0A00000ADFE05551010AE4E05551020AEAE010
:041C1A00F2D71200EB
:101C1E002ED056C15FF157C160F158C161F159C163
:101C2E0062F106EC09F031D056C15FF157C160F197
:101C3E0058C161F159C162F1DCDC27D056C15FF1A8
:101C4E0057C160F158C161F159C162F1D8EC06F08B
:101C5E001CD056C15FF157C160F158C161F159C135
:101C6E0062F18BEC08F011D0010E006E0ED0010166
:101C7E005551000ACEE05551010AD6E05551020ADF
:0C1C8E00DDE05551100AE5E0EFD7120030
:101C9A005BC1FFF058C15FF159C160F15AC161F1EE
:101CAA0023EC08F055C15FF156C160F157C161F1EB
:061CBA00EEEC07F0120041
:101CC000090E0B6E1E0E0C6EE40E0D6E0D2EFED761
:0C1CD0000C2EFCD70B2EFAD700001200DF
:101CDC0055C157F156C158F199EC04F0FFC06AF1A7
:101CEC00570E6B6F010E6C6F020E6D6F000E6E6FE8
:081CFC006F6BABEC04F0120069
:101D040055C158F156C159F10D0E0101006F0A0E6B
:101D14005A6F35D058C15FF159C160F170DE3AD0C5
:101D240058C1E9FF59C1EAFFEE5209E058C15FF119
:101D340059C160F164DE0101584B592BF1D72AD007
:101D440058C1E9FF59C1EAFFEE5209E058C15FF1F9
:101D540059C160F154DE0101584B592BF1D70101EF
:101D6400000E5F6F010E606F4ADE5A0E01015F6F55
:101D7400010E606F44DE0ED0060E006E0CD0010121
:101D84005751000AC7E05751010ACAE05751020AE5
:081D9400D7E0F2D7006A12004B
:101D9C00520E0B6E2B0E0C6E000E0D6E0D2EFED712
:0C1DAC000C2EFCD70B2EFAD70000120002
:101DB8000B6A0350D8B422EF0FF002500A6E028E5D
:101DC8008E0E035E03AE26EF0FF0036C080E035C65
:101DD800D8A001EF0FF0036E013602C001F0026ACD
:101DE800080E035CD8A001EF0FF0036E0136016AFC
:101DF8000350D8A4D8900BEF0FF00350D8B40BEFD2
:101E08000FF0D89002320132032E05EF0FF00BBC11
:101E180001A018EF0FF0D8A018EF0FF0012AD8B4DE
:101E2800022A02BE35EF0FF00AAE3AEF0FF0021E9B
:101E3800011E012AD8B4022A3AEF0FF0026A016A99
:101E48003AEF0FF00B800BAE3EEF0FF0026A0AAECE
:101E58003EEF0FF0FF0E026E016E0A3602323EEFC1
:101E68000FF0010E0C6EBBDD40EF0FF0000E0C6E94
:101E780040EF0FF0FF0E0C6E0150006E0250016E25
:021E8800120046
:101E8A00280E01015F6F3CDD55C1E1FF56C1E2FF3B
:101E9A0000C0E6FF01C0E6FF2A0E5F6F31DD57C1C1
:101EAA00E1FF58C1E2FF00C0E6FF01C0E6FF2C0EC9
:101EBA005F6F26DD59C1E1FF5AC1E2FF00C0E6FFAC
:061ECA0001C0E6FF12005A
:101ED0000101556B070E566F010E576F1CDE010195
:101EE000556B010E566F576B16DE0101556B800E58
:101EF000566F220E576F000E586F67DE010E0101FC
:101F0000556F800E566F250E576F000E586F596F24
:061F100086DED6DE1200A1
:101F16000900F5CFE6FF0006FBE10106F9E1120034
:101F26000C0E0101556F220E566F000E576F6C0E88
:101F3600586F220E596F000E5A6F6B0E5B6FAADE3A
:101F4600200E556F0F0E566FC6DE230E0101556F1C
:101F5600000E566FC0DE240E0101556F500E566FEF
:101F6600BADE2E0E0101556F400E566FB4DEA5DEA9
:101F7600B20E0101556F000E566F020E576FBFDE8F
:101F8600D30E0101556F000E566F020E576FB7DE66
:021F9600120037
:101F9800450E0101556F010E566F470E576F010E22
:101FA800586FFD0E596F000E5A6F6BDFA5DDD3DD3C
:101FB800FADD00C0F9F001C0FAF002C0FBF003C07E
:101FC800FCF09ADD540E556F000E566F010E576FD8
:101FD80095DE45C155F146C156F1750E0101576FA1
:101FE800000E586F1CDD750E556F000E566F010EF2
:101FF800576F84DE710E0101556F000E566F010E8A
:10200800576F7CDE5E0E0101556F000E566F020E93
:10201800576F74DE4A0E0101556F000E566F010EA0
:10202800576F6CDE47C155F148C156F1750E010175
:10203800576F000E586FF3DC750E556F000E566F14
:10204800010E576F5BDE230E0101556F000E566FB0
:10205800010E576F53DE1C0E0101556F000E566FAF
:10206800010E576F4BDEF9C000F0FAC001F0FBC05B
:1020780002F0FCC003F09CDE00C055F101C056F12F
:10208800750E0101576F000E586FC9DC750E556F3C
:10209800000E566F010E576F31DE150E0101556F98
:1020A800000E566F020E576F29DE400E0101556F64
:1020B800000E566F010E576F21DEFDC055F1FEC0B0
:1020C80056F1750E0101576F000E586FA8DC750E9A
:1020D800556F000E566F010E576F10DE3C0E010152
:1020E800556F000E566F010E576F08DE290E01015D
:1020F800556F000E566F020E576F00DE840E0101F9
:10210800556F000E566F020E576FF8DD43DE42DE44
:022118001200B3
:0E211A0042EC11F0D8DE02DF3ADFFED7FFD72D
:1022840010EE15F0E40E006E010E016E280EF66ECF
:0E229400210EF76E000EF86E8BEC0FF01200AC
:07212800B043202A20200033
:07212F0054656D702E3A00AB
:0621360020202A202000F9
:10213C002A2A2A2A2A2A2A2A2A2A2A2A2A2A2A2AF3
:03214C002A2A003C
:04214F0020202A0022
:0A2153002041786973205A203A00F9
:0A215D0020417869732059203A00F0
:0A21670020417869732058203A00E7
:102171002A2A2A2A2A2A2A2A2A2A2A2A2A2A2A2ABE
:032181002A2A0007
:0421840020202A00ED
:0F21880000000000000000000000000000000048
:102197002D2D2D2D2D2D2D2D2D2D2D2D2D2D2D2D68
:1021A7002D2D2D2D2D2D2D2D2D2D2D2D2D2D2D2D58
:0621B7002D2D2D2D2D0041
:0421BD00000000001E
:0421C100000000001A
:1021C5002020202020204759524F20202020202049
:1021D500202020202054656D7065726174757265CC
:0121E50000F9
:1021E6002D2D2D2D2D2D2D2D2D2D2D2D2D2D2D2D19
:1021F6002D2D2D2D2D2D2D2D2D2D2D2D2D2D2D2D09
:062206002D2D2D2D2D00F1
:10220C0098017A018A017A015E017A0134017A011E
:10221C0026017A0150017A0142017A01A6017A0164
:10222C0008027A01FA017A0124027A0116027A0173
:10223C00C40200009202000088020000BA020000F2
:10224C00B00200009C020000A6020000D2030000B5
:10225C00C80300008C030000B4030000BE030000A0
:10226C0064050000E4060000E2020000C4077401EB
:04227C00FC067401E7
:04228000A086010033
:020000040030CA
:0E00000015137F7CF98B91FFFFC0FFE0FF40DE
:00000001FF
